:020000040800F2
:10000000601C002061020008492D0008CD2900086D
:10001000452D00088B050008F9330008000000009A
:10002000000000000000000000000000C9010008FE
:100030004D060008000000000D0200084D2E0008CB
:100040007B0200087B0200087B0200087B0200089C
:100050007B0200087B0200087B0200087B0200088C
:100060007B0200087B0200087B0200087B0200087C
:100070007B0200087B0200087B0200087B0200086C
:100080007B0200087B0200087B0200087B0200085C
:10009000E93300087B0200087B0200087B020008AD
:1000A0007B0200087B0200087B0200087B0200083C
:1000B000212F0008312F00087B0200087B02000876
:1000C0007B0200087B0200087B0200087B0200081C
:1000D0007B020008B13300087B020008C13300082E
:1000E0007B0200087B0200087B02000800F002F897
:1000F00000F05AF80AA090E8000C82448344AAF168
:100100000107DA4501D100F04FF8AFF2090EBAE865
:100110000F0013F0010F18BFFB1A43F0010318473B
:1001200018680000386800000A444FF0000C10F80E
:10013000013B13F0070408BF10F8014B1D1108BF65
:1001400010F8015B641E05D010F8016B641E01F805
:10015000016BF9D113F0080F1EBF10F8014BAD1C55
:100160000C1B09D16D1E58BF01F801CBFAD505E073
:1001700014F8016B01F8016B6D1EF9D59142D6D3CD
:10018000704700000023002400250026103A28BFF5
:1001900078C1FBD8520728BF30C148BF0B607047F9
:1001A0001FB51FBD10B510BD00F086F91146FFF751
:1001B000F7FF03F07FFF00F0A4F903B4FFF7F2FFAD
:1001C00003BC00F06BF90000224B19680868B0E826
:1001D000F00F80F30988BFF36F8F4FF0000080F3BA
:1001E00011884EF00D0E70470000000006480068B0
:1001F000006880F3088862B661B6BFF34F8FBFF323
:100200006F8F00DF00BF00BF08ED00E0EFF3098053
:10021000BFF36F8F0F4B1A6820E9F00F106008B51D
:100220004FF0500080F31188BFF34F8FBFF36F8FF3
:1002300004F07CFF4FF0000080F31188BDE8084017
:1002400019680868B0E8F00F80F30988BFF36F8F72
:10025000704700BF2C010020EFF3058070470000BD
:100260000948804709480047FEE7FEE7FEE7FEE74A
:10027000FEE7FEE7FEE7FEE7FEE7FEE70448054986
:10028000054A064B70470000C92E0008ED00000823
:1002900060160020601C00206018002060180020FC
:1002A0000EB5054614460E4613A000F0E5F82846A4
:1002B00000F0E2F816A000F0DFF8304600F0DCF8BD
:1002C00015A000F0D9F800218DF80B100A210DF1CE
:1002D0000A008DF80A1008E094FBF1F201FB1242CB
:1002E00094FBF1F4303200F8012D002CF4DC00F026
:1002F000C3F800F0B6F800002A2A2A20617373655B
:100300007274696F6E206661696C65643A200000E2
:100310002C2066696C6520002C206C696E652000BD
:10032000032A40F2308010F0030C00F0158011F821
:10033000013BBCF1020F624498BF11F801CB00F8F9
:10034000013B38BF11F8013BA2F1040298BF00F84D
:1003500001CB38BF00F8013B11F0030300F025800A
:10036000083AC0F0088051F8043B083A51F804CB31
:10037000A0E80810F5E7121D5CBF51F8043B40F8F7
:10038000043BAFF30080D20724BF11F8013B11F802
:1003900001CB48BF11F8012B24BF00F8013B00F846
:1003A00001CB48BF00F8012B704710B5203AC0F0D0
:1003B0000B80B1E81850203AA0E81850B1E8185066
:1003C000A0E81850BFF4F5AF5FEA027C24BFB1E8A3
:1003D0001850A0E8185044BF18C918C0BDE8104014
:1003E0005FEA827C24BF51F8043B40F8043B08BF1D
:1003F0007047D20728BF31F8023B48BF11F8012BE4
:1004000028BF20F8023B48BF00F8012B70474FF08F
:10041000000200B5134694469646203922BFA0E854
:100420000C50A0E80C50B1F12001BFF4F7AF090760
:1004300028BFA0E80C5048BF0CC05DF804EB890051
:1004400028BF40F8042B08BF704748BF20F8022B94
:1004500011F0804F18BF00F8012B704770477047AC
:10046000704710B5002000F01FF8FFF79BFEBDE8B5
:100470001040012000F012B810B5044602E0641CE0
:1004800000F004F820780028F9D110BD08B56946BD
:100490008DF800000320ABBE08BD00000149182004
:1004A000ABBEFEE72600020010B500F039F8BDE84B
:1004B000104000F02FB87047754600F049F8AE467E
:1004C00005006946534620F00700854618B020B560
:1004D000FFF7D4FEBDE820404FF000064FF00007C4
:1004E0004FF000084FF0000B21F00701AC46ACE8DC
:1004F000C009ACE8C009ACE8C009ACE8C0098D4649
:10050000704710B50446AFF300802046BDE81040A8
:10051000FFF753BE002801D0FFF7C0BF70470000AF
:1005200010B5002102A000F017F8012010BD000056
:10053000534947414252543A2041626E6F726D6195
:100540006C207465726D696E6174696F6E00000075
:1005500000487047FC15002070B505460C460A207F
:1005600000E06D1CFFF792FF35B128780028F8D124
:1005700002E0641CFFF78AFF14B120780028F8D14C
:10058000BDE870400A20FFF781BF00BFFEE7000012
:1005900000B58BB000200690079001200890002045
:1005A00001900290039004900590012009900E2084
:1005B0000A9001A9034800F00BF908B100F047F8D0
:1005C0000BB000BDC001002010B5104800F0A5FC24
:1005D00008B100F03CF802210C4800F039F808B1ED
:1005E00000F035F840F221300949086001204860E8
:1005F0000020C86088600320086100200875054954
:100600000870AD204870AE20887010BDC001002079
:100610008C0100200000002010B508480078401C24
:1006200006490870064B0A460649074800F025F8B7
:1006300008B100F00CF8002010BD00000000002000
:10064000100000208C010020C0010020704770477E
:1006500010B5024692F82030012B01D0022B06D1B2
:1006600010684069084314686061002010BD506A3A
:1006700040F4802050620120F8E7F0B504460D46B2
:100680001E4694F8207020688368A86800B900E0CE
:1006900000BF012F01D0022F7CD103F0806030B960
:1006A00003F0006018B903F08050002873D0C3F342
:1006B0000161022905D9606A40F4000060620120EE
:1006C000F0BD012088403060A86860B9B5F800C06E
:1006D000E86840EA4C5C206800F5C07000EB01104F
:1006E000C0F800C00FE0D5E901C040EACC00D5F861
:1006F0000CC040EA0C00D4F800C00CF5C07C0CEB38
:10070000011CCCF80000D5F810C0206800F5C070BE
:1007100000EB0110C0F804C0287D01280ED120682C
:1007200000F5C07000EB0110406840F4807C206848
:1007300000F5C07000EB0110C0F804C0D0790006CD
:1007400092F806C040EA0C4092F805C040EA0C2C32
:1007500010794CEA000C206800F5C07000EB011025
:10076000C0F80CC0D078000692F802C040EA0C40F5
:1007700092F801C040EA0C2092F800C040EA0C0058
:10078000D4F800C00CF5C07C0CEB011CCCF80800C0
:10079000206801E016E00FE000F5C07000EB0110EA
:1007A000006840F0010C206800F5C07000EB0110FB
:1007B000C0F800C0002083E7606A40F40010606267
:1007C00001207DE7606A40F480206062012077E7C5
:1007D000F0B504460A46216894F82050012D01D056
:1007E000022D74D1D1F8000240F00100C1F80002DE
:1007F000107D00F01F06012000FA06F3D1F81C025C
:100800009843C1F81C02D069C8B9D1F80C029843CA
:10081000C1F80C02908880B2968940EA064601F53C
:100820001070576940F83760108880B2168940EA26
:10083000064601F51070576900EBC7004660D069A5
:10084000012819D1D1F80C021843C1F80C02908884
:1008500080B2168840EA064601F51070576940F8E4
:100860003760908980B2168940EA064601F510701B
:10087000576900EBC7004660906928B9D1F80402B7
:100880009843C1F8040204E0D1F804021843C1F807
:100890000402106928B9D1F814029843C1F814026F
:1008A00004E0D1F814021843C1F81402106A0128B8
:1008B00004D1D1F81C021843C1F81C02D1F800027F
:1008C00020F00100C1F800020020F0BDFFE7606ADF
:1008D00040F4802060620120F7E7704770B504465D
:1008E00094F82050012D01D0022D7DD151B92068FE
:1008F000C06800F0030080B9606A40F400106062D4
:10090000012070BD2068006900F0030028B9606A0A
:1009100040F4001060620120F3E7206800F5D87011
:1009200000EB0110006800F004009060906840B98E
:10093000206800F5D87000EB01100068400D1060D1
:1009400007E0206800F5D87000EB01100068C008CF
:100950005060206800F5D87000EB0110006800F0CE
:100960000200D060206800F5D87000EB01104068EC
:1009700000F00F001061206800F5D87000EB011046
:10098000406800F47F40000A9061206800F5D8704C
:1009900000EB01104068000C5061206800F5D87031
:1009A00000EB011080681870206800F5D87000EB2B
:1009B0000110806800F47F40000A5870206800F53C
:1009C000D87000EB0110806800F47F00000C987074
:1009D000206800F5D87000EB01108068000ED87018
:1009E000206800F5D87000E02FE000EB0110C0682F
:1009F0001871206800F5D87000EB0110C06800F491
:100A00007F40000A5871206800F5D87000EB011093
:100A1000C06800F47F00000C9871206800F5D87061
:100A200000EB0110C068000ED87131B92068C068B1
:100A300040F020002668F06005E02068006940F082
:100A400020002668306100205BE7606A40F4802067
:100A50006062012055E72DE9F05F0446002520681B
:100A600046692068D0F80490206887682068D0F82C
:100A70000CA02068D0F810B02068D0F8188006F0DC
:100A80000100002855D007F00100C0B10120216805
:100A9000886007F0020018B1204600F06EFA0EE000
:100AA00007F0040010B145F4006508E007F0080005
:100AB00010B145F4805502E0204600F05DFA07F4DD
:100AC0008070C8B14FF480702168886007F40070AE
:100AD00018B1204600F053FA0EE007F4806010B120
:100AE00045F4005508E007F4006010B145F4804576
:100AF00002E0204600F042FA07F48030C8B14FF41B
:100B000080302168886007F4003018B1204600F07A
:100B100038FA0EE007F4802010B145F4004508E0F3
:100B200007F4002010B145F4803502E0204600F0C3
:100B300027FA06F0080038B10AF0100020B145F499
:100B4000007510202168C86006F0040040B10AF06A
:100B5000080028B108202168C860204600F0A8F9E4
:100B600006F0020038B12068C06800F0030010B140
:100B7000204600F09FF906F0400038B10BF010005D
:100B800020B145F4806510202168086106F020003E
:100B900040B10BF0080028B1082021680861204608
:100BA00000F0B8F906F0100038B12068006900F0D4
:100BB000030010B1204600F0AEF906F4003040B159
:100BC00009F0100028B1102021684860204600F08C
:100BD000A3F906F4803040B109F0080028B10820DC
:100BE00021684860204600F0CDF906F4004088B343
:100BF00009F0040078B306F4807020B108F0010019
:100C000008B145F0010506F4007020B108F00200BB
:100C100008B145F0020506F4806020B108F0040038
:100C200008B145F0040506F40060A0B108F07000BA
:100C300088B108F07000402817D006DC10280BD0CF
:100C400020280CD0302819D10CE0502810D0602872
:100C500014D110E01DE019E045F008050FE045F063
:100C600010050CE045F0200509E045F0400506E0E0
:100C700045F0800503E045F4807500E000BF00BF4B
:100C80002068806920F07000216888610420216854
:100C900048602DB1606A284360622046FFF71DFE60
:100CA000BDE8F09F70B504460CB9012070BD94F802
:100CB000200010B9204600F0AFF82068006820F04E
:100CC00002002168086000F061FB05460DE000F0BD
:100CD0005DFB401B0A2808D9606A40F4003060625E
:100CE000052084F820000120E0E72068406800F03B
:100CF00002000028EBD12068006840F00100216864
:100D0000086000F043FB05460DE000F03FFB401B90
:100D10000A2808D9606A40F400306062052084F82F
:100D200020000120C2E72068406800F00100002890
:100D3000EBD0207E012806D12068006840F08000BA
:100D40002168086005E02068006820F080002168C4
:100D50000860607E012806D12068006840F04000ED
:100D60002168086005E02068006820F040002168E4
:100D70000860A07E012806D12068006840F02000AD
:100D80002168086005E02068006820F020002168E4
:100D90000860E07E012806D12068006820F010007D
:100DA0002168086005E02068006840F010002168B4
:100DB0000860207F012806D12068006840F0080004
:100DC0002168086005E02068006820F008002168BC
:100DD0000860607F012806D12068006840F00400A8
:100DE0002168086005E02068006820F004002168A0
:100DF0000860D4E902010843216908436169084396
:100E00006168491E08432168C861002060620120B2
:100E100084F82000002049E710B586B00446002081
:100E200002900390049005901E492068884236D1B4
:100E300000BF1D48C06940F000701B49C8610846EA
:100E4000C06900F00070019000BF00BF00BF0846FD
:100E5000806940F0040088610846806900F0040061
:100E6000019000BF00BFC8140290002003900490BE
:100E700002A90E4800F0F4F84FF4805002900220CE
:100E800003900320059002A9084800F0E9F8002229
:100E90000521142000F01CFC142000F009FC06B011
:100EA00010BD000000640040001002400008014036
:100EB0007047000038B5044612A000680090642313
:100EC00001226946104801F015FD104B104A00211F
:100ED0002046FFF703FD08B1FFF7B9FB0C48006897
:100EE00040F2213188420CD10948806848B908484D
:100EF0000069032805D1642303220449024801F054
:100F0000F9FC38BD31000000680600200800002010
:100F1000A401002070477047704770B5044694F8EC
:100F20002000012822D1022084F8200020680068D7
:100F300020F001002168086000F028FA05460DE065
:100F400000F024FA401B0A2808D9606A40F40030F7
:100F50006062052084F82000012070BD2068406890
:100F600000F001000028EBD16062F6E7606A40F40F
:100F7000002060620120F0E77047704770477047BB
:100F8000704770477047000070B50446002594F81C
:100F90002100022803D00420A063012548E0206836
:100FA000006820F00E00216808602068006820F0CA
:100FB0000100216808601F492068884201D1012092
:100FC00026E01C4914312068884201D110201FE01E
:100FD000184928312068884201D1801518E0154948
:100FE0003C312068884201D1801411E01149503110
:100FF0002068884202D14FF4803009E00D49643105
:101000002068884202D14FF4801001E04FF08070D8
:10101000084908394860012084F8210000BF0020F9
:1010200084F8200000BF606B10B12046616B8847D8
:10103000284670BD0800024070B5044600F0A6F9CD
:1010400006462546681C10B104480078054400BFD8
:1010500000F09CF9801BA842FAD370BD3800002034
:101060002DE9F8470346002294466EE14FF001084F
:1010700008FA02F4D1F8008008EA0400A0427DD109
:10108000DFF8DCA2D1F80480A8EB0A09D0453AD0F9
:1010900014DCB8F1030F50D009DCB8F1000F31D0E7
:1010A000B8F1010F1CD0B8F1020F49D120E0B8F11E
:1010B000110F18D0B8F1120F42D11EE0B9F5881FF8
:1010C00025D006DCB9F5803F20D0B9F5801F37D197
:1010D0001AE0B9F5001F18D0B9F5041F30D117E098
:1010E000D1F80CC02DE0D1F80C8008F1040C28E0F8
:1010F000D1F80C8008F1080C23E0D1F80C8008F13D
:101100000C0C1EE000BF00BF00BF00BF00BF00BF4F
:10111000D1F80880B8F1000F02D14FF0040C0BE0B9
:10112000D1F80880B8F1010F03D14FF0080C1C6111
:1011300002E04FF0080C5C6103E04FF0000C00E0AF
:1011400000BF00BFFF2801D8984601E003F1040862
:101150004646FF2802D84FEA820803E0A2F10808B9
:101160004FEA88084746D6F800804FF00F0909FA81
:1011700007F928EA09080CFA07F900E088E048EACC
:101180000908C6F80080D1F8048008F08058B8F14A
:10119000805F7DD100BFDFF8CC81D8F8188048F09F
:1011A0000108DFF8C091C9F81880C846D8F818803F
:1011B00008F00108CDF8008000BF00BF4FEAB93841
:1011C0004FEA920958F829504FEA82784FEA187985
:1011D0004FF00F0808FA09F825EA0805DFF88881BA
:1011E000434502D14FF0000816E0DFF88081434507
:1011F00002D14FF001080FE0DFF87481434502D1BE
:101200004FF0020808E0DFF86C81434502D14FF04F
:10121000030801E04FF004084FEA82794FEA197998
:1012200008FA09F848EA0505DFF84C814FEA920907
:1012300048F82950D1F8048008F48038B8F5803F88
:101240000AD1DFF83881D8F8008048EA0008DFF8D2
:101250002C91C9F8008009E0DFF82081D8F80080DF
:1012600028EA0008DFF81491C9F80080D1F804805A
:1012700008F40038B8F5003F10D1DFF8008108F11C
:101280000408D8F8008048EA0008DFF8F09000E091
:101290005AE009F10409C9F800800DE0DFF8DC80AC
:1012A00008F10408D8F8008028EA0008DFF8CC909C
:1012B00009F10409C9F80080D1F8048008F4801805
:1012C000B8F5801F0ED1DFF8B48008F10808D8F80F
:1012D000008048EA0008DFF8A49009F10809C9F87D
:1012E00000800DE0DFF8948008F10808D8F800804D
:1012F00028EA0008DFF8849009F10809C9F800809D
:10130000D1F8048008F40018B8F5001F0ED1DFF8FA
:101310006C8008F10C08D8F8008048EA0008DFF873
:101320005C9009F10C09C9F800800DE0DFF84C80F1
:1013300008F10C08D8F8008028EA0008DFF83C9093
:1013400009F10C09C9F80080521CD1F8008028FA74
:1013500002F8B8F1000F7FF489AEBDE8F88700000D
:10136000000011100010024000080140000C014074
:101370000010014000140140080001400004014039
:101380000AB1016101E00B04036170470148006884
:10139000704700003000002070B504460CB90120F1
:1013A00070BD94F83D0028B9002084F83C00204628
:1013B00000F0CEF8242084F83D002068006820F07A
:1013C00001002168086000F0A1FA05465C496068E8
:1013D000884206D85B48854201D2012007E0002000
:1013E00005E05948854201D2012000E00020012893
:1013F00000D1D5E75548B5FBF0F62068406820F0ED
:101400003F003043216848604D496068884201D8F8
:10141000701C07E04FF4967070434FF47A71B0FB84
:10142000F1F0401C2168096A21F03F01084321685E
:10143000086243496068884214D8681E61684900A0
:10144000B0FBF1F0401CC0F30B00042801D20420D3
:101450003DE0681E61684900B0FBF1F0401CC0F33C
:101460000B0034E0A06838B9681E616801EB4101E7
:10147000B0FBF1F0401C0AE0681E616801EBC1029C
:1014800002EB0111B0FBF1F0401C40F48040C0F3CE
:101490000B0008B901201AE0A06848B9681E61680D
:1014A00001EB4101B0FBF1F0401CC0F30B000CE07C
:1014B000681E616801EBC10202EB0111B0FBF1F0A3
:1014C000401CC0F30B0040F4804040F40040216811
:1014D000C9694CF6FF72914308432168C861D4E999
:1014E000070108432168096821F0C0010843216809
:1014F0000860D4E9031008432168896848F2FF3284
:101500009143084321688860D4E9050108432168B4
:10151000C96821F0FF0108432168C860206800689D
:1015200040F001002168086000202064202084F839
:101530003D000020206384F83E0000BF30E700003B
:10154000A086010080841E0000093D0040420F007B
:1015500010B586B0044600200290039004900590D8
:1015600015492068884225D100BF1448806940F0A1
:101570000800124988610846806900F0080001905F
:1015800000BF00BFC02002901220039003200590EE
:1015900002A90B48FFF764FD00BF0848C06940F48A
:1015A00000100649C8610846C06900F400100190A7
:1015B00000BF00BF06B010BD005400400010024044
:1015C000000C0140034800680349097808440149B8
:1015D00008607047300000203800002010B508482F
:1015E000006840F0100006490860032000F0AEF8E3
:1015F0000F2000F007F800F02BF8002010BD0000CD
:101600000020024070B504460E4800784FF47A710D
:10161000B1FBF0F00C490968B1FBF0F5284600F089
:1016200097FC08B1012070BD102C07D20022214682
:10163000501E00F04DF80548046001E00120F2E77B
:101640000020F0E7380000203C000020340000209B
:1016500008B500BF1448806940F001001249886154
:101660000846806900F00100009000BF00BF00BF85
:101670000846C06940F08050C8610846C06900F063
:101680008050009000BF00BF00220F21901E00F08C
:101690001FF800BF0549486820F0E06040F0007086
:1016A000486000BF08BD000000100240000001407B
:1016B00001460846002809DB00F01F0301229A407A
:1016C00043099B0003F1E023C3F8002100BF7047EA
:1016D0002DE9F05F80460D461646002701F08EFE8C
:1016E000074639462A46334601F00700C0F1070A8B
:1016F000BAF1040F02D94FF0040A01E0C0F1070A61
:10170000D14600F1040ABAF1070F02D24FF0000AE5
:1017100001E0A0F1030AD4464FF0010A0AFA09FADF
:10172000AAF1010A0AEA020A0AFA0CFA4FF0010BBE
:101730000BFA0CFBABF1010B0BEA030B4AEA0B04AF
:101740002146404601F062FEBDE8F09F00BF00F078
:101750000702064B19684FF6FF031940044B0B4371
:1017600043EA0221014B196000BF70470CED00E015
:101770000000FA0570B504460D460CB9012070BD95
:101780005A48006800F00700A8420ED25748006887
:1017900020F007002843554908600846006800F01B
:1017A0000700A84201D00120E9E7207800F00200FC
:1017B00002281DD1207800F00400042805D14C48EF
:1017C000406840F4E0604A494860207800F0080032
:1017D000082805D14648406840F4605044494860B4
:1017E0004348406820F0F000A16808434049486041
:1017F000207800F0010078B36068012806D13C48E9
:10180000006800F4003090B90120B8E76068022851
:1018100006D13748006800F0007040B90120AEE7FB
:101820003348006800F0020008B90120A7E73048FB
:10183000406820F00300616808432D494860FFF7C5
:10184000A5FD064609E0FFF7A1FD801B41F28831A6
:10185000884202D9032092E707E02548406800F05B
:101860000C006168B0EB810FEDD12048006800F0FA
:101870000700A8420ED91D48006820F00700284341
:101880001A4908600846006800F00700A84201D025
:10189000012074E7207800F00400042807D11448E0
:1018A000406820F4E060E16808431149486020780E
:1018B00000F00800082808D10D48406820F4605066
:1018C000216940EAC1000A49486000F03FF8084930
:1018D0004968C1F30311074A515CC84006490860D2
:1018E00006480068FFF78EFE002048E7002002400F
:1018F000001002404C6600083C000020340000202C
:1019000001480068704700003C00002000B5FFF768
:10191000F7FF04494968C1F30221034A515CC840FA
:1019200000BD0000001002405C66000800B5FFF733
:10193000E7FF04494968C1F3C221034A515CC8402A
:1019400000BD0000001002405C660008F0B585B0E4
:101950000FF26C0C9CE8E01001A8A0E8E0101CA5B8
:101960002D68009500210022002300240020194D3D
:10197000696801F00C05F5B1042D02D0082D19D1CC
:1019800001E0154819E001ADC1F38346AC5D01F4F7
:10199000803555B10F4D6D68C5F340451DF80520E4
:1019A0000D4D6543B5FBF2F302E00C4D04FB05F36E
:1019B000184602E000BF084800BF00BF05B0F0BDF8
:1019C00002030405060708090A0B0C0D0E0F101080
:1019D000010200000010024000127A0000093D00E0
:1019E000F8B504460CB90120F8BD207800F00100DC
:1019F000002878D0F848406800F00C0004280CD08B
:101A0000F548406800F00C00082811D1F248406801
:101A100000F48030B0F5803F0AD1EF48006800F450
:101A2000003000285FD0606800285CD10120DBE72F
:101A300000BF6068B0F5803F06D1E748006840F419
:101A40008030E549086028E0606858B9E2480068DD
:101A500020F48030E04908600846006820F48020C7
:101A600008601AE06068B0F5A02F0BD1DA48006872
:101A700040F48020D84908600846006840F480306F
:101A800008600AE0D448006820F48030D249086039
:101A90000846006820F48020086000BF606888B1B4
:101AA000FFF774FC054606E0FFF770FC401B642856
:101AB00001D9032098E7C848006800F400300028E6
:101AC000F2D010E0FFF762FC054606E0FFF75EFC8F
:101AD000401B642801D9032086E7BF48006800F452
:101AE00000300028F2D1207800F00200022857D1FF
:101AF000B948406800F00C0050B1B748406800F0A9
:101B00000C00082818D1B448406800F4803098B917
:101B1000B148006800F0020020B12069012801D01E
:101B2000012061E7AC48006820F0F800616940EAF4
:101B3000C100A949086033E02069E8B10120A74944
:101B40000860FFF723FC054606E0FFF71FFC401B7B
:101B5000022801D9032047E79F48006800F00200EF
:101B60000028F2D09C48006820F0F800616940EA43
:101B7000C1009949086013E0002098490860FFF708
:101B800005FC054606E0FFF701FC401B022801D9D1
:101B9000032029E79048006800F002000028F2D1F5
:101BA000207800F0080008282DD1A069B8B10120E4
:101BB0008B490860FFF7EAFB054606E0FFF7E6FB06
:101BC000401B022801D903200EE78348406A00F039
:101BD00002000028F2D0012001F0B8F813E0002044
:101BE0007F490860FFF7D2FB054606E0FFF7CEFB12
:101BF000401B022801D90320F6E67748406A00F02E
:101C000002000028F2D1207800F00400042873D1EB
:101C100000277148C06900F0805070B900BF6E485D
:101C2000C06940F080506C49C8610846C06900F046
:101C30008050009000BF00BF01276A48006800F490
:101C40008070B0B96748006840F4807065490860EA
:101C5000FFF79CFB054606E0FFF798FB401B642856
:101C600001D90320C0E65F48006800F480700028B6
:101C7000F2D000BFE068012806D15748006A40F062
:101C800001005549086227E0E06858B95248006AE7
:101C900020F00100504908620846006A20F0040064
:101CA000086219E0E06805280BD14B48006A40F053
:101CB0000400494908620846006A40F001000862D1
:101CC0000AE04548006A20F00100434908620846DE
:101CD000006A20F00400086200BFE068A0B1FFF7CE
:101CE00055FB054609E0FFF751FB401B41F28831E7
:101CF000884202D9032077E622E03748006A00F0E4
:101D000002000028EFD012E0FFF740FB054608E094
:101D1000FFF73CFB401B41F28831884201D9032088
:101D200062E62D48006A00F002000028F0D1012F81
:101D300005D12948C06920F080502749C86100BFFB
:101D4000E069C8B32448406800F00C00082860D05F
:101D5000E069022848D1002020490866FFF716FBF9
:101D6000054606E0FFF712FB401B022801D90320BD
:101D70003AE61948006800F000700028F2D1206AA5
:101D8000B0F5803F07D11448406820F40030A168C6
:101D9000084311494860D4E9080108430E494968DD
:101DA00021F4741108430C49486001200B4908666E
:101DB000FFF7ECFA054607E03DE0FFF7E7FA401BC6
:101DC000022801D903200FE60348006800F00070E4
:101DD0000028F2D02FE00000001002400000424234
:101DE0008004424200700040002014490866FFF75A
:101DF000CDFA054606E0FFF7C9FA401B022801D9D3
:101E00000320F1E50E48006800F000700028F2D1D0
:101E100011E0E069012800D1E6E50948466806F4CA
:101E20008031206A814204D106F47011606A8142D7
:101E300001D00120D8E50020D6E500000000424294
:101E40000010024010B504460CB9012010BD606AB4
:101E500000B900BF0021A16294F8510028B9002008
:101E600084F85000204600F031F8022084F8510038
:101E70002068006820F0400021680860D4E9010172
:101E80000843E16808432169084361690843218BDD
:101E900001F400710843E1690843216A0843A16A1B
:101EA0000843216808600421A06901EA1040216804
:101EB00048602068C06920F400602168C861002083
:101EC0006065012084F851000020BFE710B586B09E
:101ED0000446002002900390049005901949206860
:101EE00088422DD100BF1848806940F480501649BF
:101EF00088610846806900F48050019000BF00BFEF
:101F000000BF0846806940F0040088610846806987
:101F100000F00400019000BF00BFA020029002204A
:101F200003900320059002A90848FFF799F8402084
:101F3000029000200390049002A90448FFF790F853
:101F400006B010BD00300140001002400008014002
:101F500070B504462546681EB0F1807F01D301208C
:101F60000FE0681E4FF0E02148610F214FF0FF3075
:101F700001F04CFA00204FF0E02188610720086151
:101F8000002070BD7047704710B5024600BF92F840
:101F90003C00012801D1022010BD012082F83C0044
:101FA00000BF022082F83D00106843681068846812
:101FB00023F070030868034324F080044868044356
:101FC0001068436010688460012082F83D0000BF03
:101FD000002082F83C0000BF00BFDDE710B50446DA
:101FE0000CB9012010BD94F83D0028B9002084F8F8
:101FF0003C00204600F00CF8022084F83D00211D32
:10200000206800F09DFF012084F83D000020E9E7F2
:1020100038B504462068B0F1804F16D100BF18488B
:10202000C06940F001001649C8610846C06900F067
:102030000100009000BF00BF002205211C20FFF717
:1020400047FB1C20FFF734FB19E00E49206888424B
:1020500015D100BF0A48C06940F002000849C861B4
:102060000846C06900F00200009000BF00BF0022D7
:1020700005211D20FFF72CFB1D20FFF719FB38BDA4
:10208000001002400004004001460868C06840F0AB
:1020900001000B68D8600868806800F00702062A13
:1020A00005D00868006840F001000B681860002047
:1020B000704701460868C06820F001000A68D060D7
:1020C00000BF0868006A41F21112104050B9086858
:1020D000006A9210104028B90868006820F00100DA
:1020E0000A68106000BF002070472DE9F0410446E7
:1020F0000D4600BF94F83C00012802D10220BDE843
:10210000F081012084F83C0000BF022084F83D00EB
:102110002068866826F0770626F47F462068866069
:102120002868502833D00CDC202850D004DC00284C
:102130004BD0102851D149E0302849D040284CD10B
:1021400039E060282DD0702807D0B0F5805F03D02B
:10215000B0F5005F41D10DE040E0D5E902136A68B7
:10216000206800F027FF2068866846F07706206820
:10217000866033E0D5E902136A68206800F01AFF30
:102180002068806840F480402168886026E0EA6822
:102190006968206800F022FF5021206800F015FFD8
:1021A0001CE0EA686968206800F02BFF6021206865
:1021B00000F00BFF12E0EA686968206800F00EFF8B
:1021C0004021206800F001FF08E000BF00BF00BF11
:1021D0002968206800F0F9FE00E000BF00BF012080
:1021E00084F83D0000BF002084F83C0000BF00BF21
:1021F00085E7704710B5044620680069C0F34000C9
:10220000D8B12068C068C0F34000B0B16FF00200E0
:1022100021680861012020772068806900F00300B0
:1022200018B12046FFF7E5FF05E0204600F0ADF8C5
:10223000204600F0ABF80020207720680069C0F34A
:102240008000D8B12068C068C0F38000B0B16FF0E2
:10225000040021680861022020772068806900F46A
:10226000407018B12046FFF7C4FF05E0204600F09B
:102270008CF8204600F08AF800202077206800695A
:10228000C0F3C000D8B12068C068C0F3C000B0B1CE
:102290006FF0080021680861042020772068C06979
:1022A00000F0030018B12046FFF7A3FF05E0204629
:1022B00000F06BF8204600F069F8002020772068D5
:1022C0000069C0F30010D8B12068C068C0F30010E6
:1022D000B0B16FF0100021680861082020772068F5
:1022E000C06900F4407018B12046FFF782FF05E096
:1022F000204600F04AF8204600F048F800202077F9
:102300002068006900F0010058B12068C06800F042
:10231000010030B16FF0010021680861204600F033
:1023200037F820680069C0F3C01058B12068C06851
:10233000C0F3C01030B16FF0800021680861204602
:10234000FFF720FE20680069C0F3801058B12068B4
:10235000C068C0F3801030B16FF0400021680861A0
:10236000204600F035F820680069C0F3401058B1ED
:102370002068C068C0F3401030B16FF020002168C1
:1023800008612046FFF7FFFD10BD70477047000051
:1023900010B504462068B0F1804F09D1084800F01C
:1023A00019F80848FFF785FE01200749087005E085
:1023B00006492068884201D102F00EFB10BD0000E2
:1023C00068060020E80400202C00002000040040E3
:1023D0007047704710B504462068C06820F49070BC
:1023E0002168C8602068406920F0010021684861C8
:1023F0002068406900F04000D8B12068406920F0B2
:10240000400021684861606B50B10F48616B4863C0
:10241000606BFEF7B9FDA0B1606B416B884710E0BF
:102420000020E085202084F83A002046FFF7D1FF05
:1024300007E00020E085202084F83A002046FFF7DE
:10244000C8FF002010BD00003F30000870470000AA
:102450002DE9F0470446206805682068C6682068B2
:1024600047694FF00008C14605F00F08B8F1000FAA
:102470000AD105F0200038B106F0200020B1204636
:1024800000F009FEBDE8F087B8F1000F6DD007F04D
:10249000010018B906F49070002866D005F001001C
:1024A00030B106F4807018B1E06B40F00100E063D9
:1024B00005F0040030B107F0010018B1E06B40F006
:1024C0000200E06305F0020030B107F0010018B12E
:1024D000E06B40F00400E06305F0080030B107F065
:1024E000010018B1E06B40F00800E063E06B68B3F6
:1024F00005F0200028B106F0200010B1204600F0C1
:10250000CAFD20684069C0F38019E06B00F0080044
:1025100010B9B9F1000F22D0204600F09CFD2068D0
:10252000406900F04000B0B12068406920F04000F0
:1025300021684861606B50B11748616B4863606BFC
:10254000FEF722FD10B1606B416B88470CE020461E
:10255000FFF77CFF08E02046FFF778FF04E0204605
:10256000FFF774FF0020E0638CE705F0800030B1D6
:1025700006F0800018B1204600F0B0FE82E705F0BA
:10258000400030B106F0400018B1204600F073FD65
:1025900078E700BF76E700002B30000810B504464E
:1025A0000CB9012010BDA06900B100E000BF94F893
:1025B000390028B9002084F83800204600F028F8B7
:1025C000242084F839002068C06820F40050216875
:1025D000C860204600F0B2FD2068006920F49040F9
:1025E000216808612068406920F02A00216848615C
:1025F0002068C06840F400502168C8600020E06393
:10260000202084F8390084F83A000020CAE700004E
:1026100010B586B004460020029003900490059007
:102620003C492068884237D100BF3B48806940F46C
:102630008040394988610846806900F480400190F3
:1026400000BF00BF00BF0846806940F004008861F9
:102650000846806900F00400019000BF00BF4815E3
:102660000290022003900320059002A92B48FEF758
:10267000F7FC4FF48060029000200390049002A9C0
:102680002648FEF7EDFC002205212520FFF720F863
:102690002520FFF70DF83AE021492068884236D11D
:1026A00000BF1D48C06940F480201B49C86108462E
:1026B000C06900F48020019000BF00BF00BF084641
:1026C000806940F0080088610846806900F00800D1
:1026D000019000BF00BF0815029002200390032064
:1026E000059002A90F48FEF7BBFC4FF40060029072
:1026F00000200390049002A90A48FEF7B1FC0022D2
:1027000005212720FEF7E4FF2720FEF7D1FF06B0C2
:1027100010BD0000003801400010024000080140D8
:1027200000480040000C01402DE9F84304460D46E6
:1027300016461F464FF0000994F83A00202860D151
:1027400005B116B90120BDE8F88300BF94F8380040
:10275000012801D10220F6E7012084F8380000BFEB
:102760000020E063222084F83A00FEF70FFE814645
:10277000A685E68539E0E08D401EE085A068B0F5CD
:10278000805F1BD14B46002220212046009700F09D
:10279000D9FD08B10320D6E7A846206938B92068DA
:1027A0004068C0F30800A8F80000AD1C1DE02068D8
:1027B0004068C0B2A8F800006D1C16E04B4600222D
:1027C00020212046009700F0BDFD08B10320BAE7A4
:1027D000206920B92068406805F8010B05E02068F1
:1027E000406800F07F0005F8010BE08D0028C2D1A1
:1027F000202084F83A0000BF002084F8380000BF91
:10280000A1E702209FE710B5034693F83A0020287D
:102810002FD101B10AB9012010BD00BF93F83800D3
:10282000012801D10220F7E7012083F8380000BF1A
:1028300099629A85DA850020D863222083F83A00CD
:1028400000BF002083F8380000BF1868C06840F45B
:1028500080701C68E0601868406940F001001C68E6
:1028600060611868C06840F020001C68E0600020CB
:10287000D2E70220D0E7000010B5044616492068D0
:10288000884228D115480078012803D10020144936
:10289000087020E0124800781249134A12888854C0
:1028A00001220F491148FFF7AEFF0F48008818B901
:1028B0000F48FFF7E9FB03E000200D490968486273
:1028C00009480088401C0849088008460088FF28FD
:1028D00001DD0120088010BD003801402C000020DF
:1028E00028000020680500202A000020680600203B
:1028F000E80400202DE9F84304460D4616461F461D
:102900004FF0000994F8390020285CD105B116B9C0
:102910000120BDE8F88300BF94F83800012801D1F8
:102920000220F6E7012084F8380000BF0020E063B1
:10293000212084F83900FEF729FD8146A684E6842B
:102940002BE0E08C401EE084A068B0F5805F16D1DB
:102950004B46002280212046009700F0F3FC08B18E
:102960000320D6E7A846B8F80000C0F308002168A5
:102970004860206908B9AD1C0FE06D1C0DE04B46A6
:10298000002280212046009700F0DCFC08B10320E3
:10299000BFE715F8010B21684860E08C0028D0D112
:1029A0004B46002240212046009700F0CBFC08B1A6
:1029B0000320AEE7202084F8390000BF002084F80F
:1029C000380000BFA5E70220A3E7704700BFFEE77D
:1029D00010B51048104908600420486001070E48EF
:1029E00081604FF04071C1604FF4002101614FF4EC
:1029F000E001416100210176417681760121C176B5
:102A0000017700214177FEF74DF908B1FDF71FFE70
:102A100010BD000000640040C001002000B59FB060
:102A200000201D901E9001211DA801F0BFFB194937
:102A300008601C22184916A8FDF7B7FC002116A84B
:102A400001F036FC154908601C2213491C310FA8FF
:102A5000FDF7ABFC00210FA801F02AFC104908602B
:102A60001C220D49383108A8FDF79FFC002108A859
:102A700001F01EFC0B4908601C220749543101A8D3
:102A8000FDF793FC002101A801F012FC0649086043
:102A90001FB000BD24000020DC65000814000020E9
:102AA000180000201C0000202000002000B585B088
:102AB0000020019002900390049000BF2C48806990
:102AC00040F010002A4988610846806900F0100033
:102AD000009000BF00BF00BF0846806940F02000A2
:102AE00088610846806900F02000009000BF00BFA8
:102AF00000BF0846806940F004008861084680698C
:102B000000F00400009000BF00BF00BF08468069CD
:102B100040F0080088610846806900F008000090D5
:102B200000BF00BF012251031248FEF729FC00221A
:102B300004211148FEF724FC4FF4005001900120BD
:102B40000290002003900220049001A90948FEF79A
:102B500087FA0420019001200290002003900220B7
:102B6000049001A90448FEF77BFA05B000BD0000FF
:102B70000010024000100140000C014010B50B484D
:102B80000B4908600B484860002109488160C1601A
:102B90004FF480410161002141618161C1610162A5
:102BA000FEF7FAFB08B1FDF752FD10BD00540040DE
:102BB0003C040020A086010010B50E480E490860B4
:102BC0004FF48270486000210B488160C160016150
:102BD00041614FF4007181612821C16100210162CE
:102BE000416281620A21C162FFF72CF908B1FDF749
:102BF0002EFD10BD003001409004002000B587B0CC
:102C000000200390049005900690019002904FF0F0
:102C100080401449086042F2273048600021114882
:102C200081600A21C160002101618161FFF7D6F94D
:102C300008B1FDF70CFD4FF48050039003A909483B
:102C4000FFF753FA08B1FDF702FD00200190029052
:102C500001A90448FFF798F908B1FDF7F8FC07B09F
:102C600000BD0000E804002000B587B000200390FC
:102C70000490059006900190029014481449086051
:102C800041F61F4048600021114881603221C16037
:102C9000002101618161FFF7A1F908B1FDF7D7FCBF
:102CA0004FF48050039003A90948FFF71EFA08B1BA
:102CB000FDF7CDFC00200190029001A90448FFF728
:102CC00063F908B1FDF7C3FC07B000BD0004004084
:102CD0002805002010B50B480B4908604FF4E1307F
:102CE0004860002108488160C16001610C21416198
:102CF00000218161C161FFF751FC08B1FDF7A7FC1C
:102D000010BD0000003801406806002010B50B48D7
:102D10000B4908604FF41650486000210848816054
:102D2000C16001610C21416100218161C161FFF736
:102D300035FC08B1FDF78BFC10BD000000480040D9
:102D4000A806002000BFFEE77047000008B508494C
:102D50000968C9084FF47A72B1FBF2F1414300915E
:102D600000BF00BF00994A1E00920029F9D108BD9A
:102D70003C0000207047000000BF4FF0FF310548C5
:102D8000006801F061FAFDF747FC642001F0FDF9ED
:102D9000F3E700002400002000BF0A2001F0F5F94D
:102DA000FBE700BF00F078FF012001F0EEF9F9E742
:102DB00000BF1B48007870B300224FF4005119483F
:102DC000FEF7DEFA0020164908704FF47A731648B1
:102DD000028816491648FFF78DFD09E04FF47A7313
:102DE0000D2214A11248FFF785FD6420FEF724F997
:102DF000012214490E48FFF706FD0028EED10122FA
:102E000051030848FEF7BCFA0020074908800E4825
:102E1000006801F0F1F90A2001F0B7F9C9E70000F4
:102E20002C000020001001402A000020680500202E
:102E3000680600205561727431204572726F720D00
:102E40000A000000280000202400002010B5FEF732
:102E5000B9FB03F079F9012801D002F017FD10BD8C
:102E600000B58FB0282105A8FDF7D1FA14216846D6
:102E7000FDF7CDFA01200590000406900020079090
:102E80000120099002200C90C1030D914FF4E01134
:102E90000E9105A8FEF7A4FD08B1FDF7D8FB0F20A1
:102EA000009002200190002002904FF48060039077
:102EB0000020049002216846FEF75CFC08B1FDF793
:102EC000C6FB0FB000BD00001148006840F00100D3
:102ED0000F490860084640680E4908400C494860A0
:102EE000084600680C49084009490860084600681F
:102EF00020F4802008600846406820F4FE00486006
:102F00004FF41F008860C803044908607047000040
:102F1000001002400000FFF8FFFFF6FE08ED00E0A1
:102F200010B50248FFF766F910BD0000E804002064
:102F300010B50248FFF75EF910BD0000280500201B
:102F400010B50268184B984208D0B0F1804F05D0F8
:102F5000164B984202D0164B984203D122F07002D1
:102F60004B681A43104B984208D0B0F1804F05D0FF
:102F70000E4B984202D00E4B984203D122F440727D
:102F8000CB681A4322F080034C6943EA04020260D2
:102F90008B68C3620B688362034B984201D10B6953
:102FA00003630123436110BD002C01400004004075
:102FB0000008004030B50C46816821F47F4142EAA8
:102FC000032525432943816030BD0A46816821F0ED
:102FD000700142F0070319438160704730B50B461A
:102FE0001446026A056A25F001050562816921F02F
:102FF000F00141EA041122F00A021A4381610262DF
:1030000030BD30B50B461446056A25F01005056243
:103010008169026A21F4704141EA043122F0A00280
:1030200042EA03128161026230BD70B505466C6AE6
:103030000020E085E0842046FFF708FA70BD70B5F7
:1030400005466C6A0020E085202084F83A0020467E
:10305000FFF7BFF970BD0168C96821F4907102687B
:10306000D1600168496921F00101026851612021A4
:1030700080F83A10704710B504462068C06820F008
:1030800040002168C860202084F839002046FFF7FE
:103090009CFC002010BD70B5044694F83A0022282C
:1030A0004AD1A068B0F5805F13D1A56A206940B904
:1030B00020684068C0F308002880A06A801CA062D5
:1030C00019E020684068C0B22880A06A401CA06255
:1030D00011E0206938B920684068C1B2A26A501C6A
:1030E000A062117007E02068406800F07F01A26ACA
:1030F000501CA0621170E08D401E80B2E085C8B9FE
:103100002068C06820F020002168C8602068C0687E
:1031100020F480702168C8602068406920F00100B8
:1031200021684861202084F83A002046FFF7A4FB7C
:10313000002070BD0020FCE70220FAE770B50446CD
:103140002168096921F44051E26811432268116144
:103150002269A1681143626941EA02052168C968D0
:1031600041F20C62914329432268D1602168496988
:1031700021F44071A269114322685161564A2168C5
:10318000914254D1FEF7D2FB00EBC00101EB0011DC
:1031900062689200B1FBF2F100EBC00202EB001298
:1031A00063689B00B2FBF3F26423B2FBF3F202EB21
:1031B000C20303EB0212A1EB8201322202EB0111E6
:1031C0006422B1FBF2F101F0F00100EBC00202EB6E
:1031D000001263689B00B2FBF3F26423B2FBF3F2CC
:1031E00001EB021200EBC00101EB001163689B00D0
:1031F000B1FBF3F100EBC00303EB00136668B6000C
:10320000B3FBF6F36426B3FBF6F303EBC30606EB5E
:103210000313A1EB8301322303EB01116423B1FB00
:10322000F3F101F00F0111442268916053E0FEF7C1
:103230006DFB00EBC00101EB001162689200B1FB75
:10324000F2F100EBC00202EB001263689B00B2FBDC
:10325000F3F26423B2FBF3F202EBC20303EB0212BC
:10326000A1EB8201322202EB01116422B1FBF2F1E7
:1032700001F0F00100EBC00202EB001263689B005A
:10328000B2FBF3F26423B2FBF3F201EB021200EBA8
:10329000C00101EB001163689B00B1FBF3F100EB8F
:1032A000C00303EB00136668B600B3FBF6F36426B5
:1032B000B3FBF6F303EBC30606EB0313A1EB8301A9
:1032C000322303EB01116423B1FBF3F101F00F0191
:1032D00011442268916070BD00380140014691F8A8
:1032E000390021282CD18868B0F5805F0FD10A6A97
:1032F0001088C0F308000B685860086918B9086A9C
:10330000801C086209E0086A401C086205E00B6A3C
:10331000581C086218780B685860C88C401E80B230
:10332000C88458B90868C06820F080000B68D8606D
:103330000868C06840F040000B68D8600020704703
:103340000220FCE72DE9F04104460D461746984659
:10335000069E21E0701CF8B12EB1FEF717F8A0EB25
:103360000800B04218D92068C06820F4D0702168E5
:10337000C8602068406920F0010021684861202071
:1033800084F8390084F83A0000BF002084F838003F
:1033900000BF0320BDE8F081206800682840A842F3
:1033A00001D1012000E00020B842D3D00020F1E795
:1033B00010B50248FFF74CF810BD00006806002069
:1033C00010B508480068C06800F0200008B101F09E
:1033D0000BFB04480068C06800F0800008B101F0F1
:1033E0000BFB10BDA806002010B50248FDF733FB0B
:1033F00010BD0000C001002000BFFEE702480068C9
:10340000C0F30220704700000CED00E010B500286A
:1034100004DB0A07130E054A135406E00A07140ECC
:10342000034A00F00F031B1FD45410BD00E400E05A
:1034300018ED00E080F31088704780F31088704723
:103440002DE9F04180460C4615461E460027012016
:10345000FFF7F0FF0A200C4908703346072229467F
:10346000204602F075F8012801D0032706E044F653
:10347000206002F081F8012800D003270020FFF728
:10348000D9FF3846BDE8F0810B0100202DE9F0415D
:1034900004460D46164600270120FFF7CBFF1448CF
:1034A0000088FF2800DC04E09C2212A119A0FCF790
:1034B000F7FE0F480088032813DB0D4801881F48DA
:1034C000006801F078FA60B91C4800680078207044
:1034D00007480088801E308018480068401C28601B
:1034E00000E005270020FFF7A5FF3846BDE8F08182
:1034F000000100202E2E5C667265656D6F6462753A
:10350000735C61736369695C6D6261736369692E81
:10351000630000007573526376427566666572508B
:103520006F73203C204D425F5345525F5044555FBE
:1035300053495A455F4D415800000000FC000020EF
:103540002DE9F04104460D4616464FF000080120D3
:10355000FFF770FF1748007818BB681E164908600F
:103560000120164908801448006804700846008845
:1035700030440880084601880F48006801F01BFAB3
:1035800007460E490888411C0C4A11800C490968FD
:103590000F5401200B4908700121002001F066FB47
:1035A00001E04FF005080020FFF744FF4046BDE86A
:1035B000F0810000F9000020040100200801002033
:1035C000FC000020F800002010B50120FFF732FFBA
:1035D0000021012001F04AFB002004490870FFF798
:1035E00029FF002001F098FF10BD0000F900002025
:1035F00010B50120FFF71EFF0021084601F036FB41
:1036000001F05CFB0020FFF715FF10BD10B5002492
:1036100006480078012806D1054800688047002048
:103620000249087000E00624204610BD4200002038
:10363000480000202DE9F05F06460D464FF0000BD4
:103640002888052848D170784FEA0029B07840EAE8
:10365000090909F101001FFA80F9F07804023079B4
:103660000443012C35DBB4F5FA6F32DA374600201B
:103670002880012007F8010B2888401C288004F0CE
:10368000070040B12046E11704EB5171C910491CF5
:1036900001F0FF0805E02046E11704EB5171C1F38A
:1036A000C70807F8018B2888401C28800023224681
:1036B0004946384600F080FC8246BAF1000F04D03B
:1036C000504601F02CF9834608E0288840442880C1
:1036D00004E04FF0030B01E04FF0030B5846BDE848
:1036E000F09F2DE9F05F06460D464FF0000B28884D
:1036F000052847D170784FEA0029B07840EA0909D7
:1037000009F101001FFA80F9F078040230790443CE
:10371000012C34DBB4F5FA6F31DA3746002028800B
:10372000022007F8010B2888401C288004F00700BD
:1037300040B12046E11704EB5171C910491C01F05A
:10374000FF0805E02046E11704EB5171C1F3C708FB
:1037500007F8018B2888401C2880224649463846B5
:1037600000F02EFC8246BAF1000F04D0504601F062
:10377000D6F8834608E028884044288004E04FF0CB
:10378000030B01E04FF0030B5846BDE8F09F2DE915
:10379000F04705460C464FF0000A2088052837D12F
:1037A00068784FEA0028A87840EA080808F1010084
:1037B0001FFA80F8E87806022E79012E25DB7D2E8F
:1037C00023DC2F4600202080032007F8010B2088EF
:1037D000401C20807006000E07F8010B2088401C5A
:1037E0002080002332464146384600F0EDFB8146FA
:1037F000B9F1000F04D0484601F091F8824609E083
:10380000208800EB4600208004E04FF0030A01E02E
:103810004FF0030A5046BDE8F0872DE9F047054612
:103820000C464FF0000A2088052837D168784FEA07
:103830000028A87840EA080808F101001FFA80F87B
:10384000E878060228790643012E24DB7D2E22DA51
:103850002F4600202080042007F8010B2088401C00
:1038600020807006000E07F8010B2088401C208085
:1038700032464146384600F0E7FB8146B9F1000F79
:1038800004D0484601F04BF8824609E0208800EB5E
:103890004600208004E04FF0030A01E04FF0030AE5
:1038A0005046BDE8F0872DE9FC5F04460D46002038
:1038B000009028880A285DDB60784FEA002AA0780B
:1038C00040EA0A0A0AF101001FFA80FAE0780602CB
:1038D0002079064360794FEA002BA07940EA0B0B70
:1038E0000BF101001FFA80FBE0790702207A074301
:1038F000607A0190012E3BDB7D2E39DC012F37DB16
:10390000792F35DC79000198814231D101233A4683
:10391000594604F10A0000F057FB8146B9F1000F47
:103920001ED1A04600202880172008F8010B288807
:10393000401C28807006000E08F8010B2888401CE7
:103940002880002332465146404600F03DFB814628
:10395000B9F1000F04D12888022101FB060028805C
:10396000B9F1000F06D0484600F0D9FF009001E001
:10397000032000900098BDE8FC9F000070B505464C
:103980000C46064802880649681CFCF7C9FC034837
:103990000088401C2080002070BD00000C01002029
:1039A000E80600202DE9F84304460F464FF00008D2
:1039B0003888052829D160780502A0780543681C5D
:1039C00085B22079F0B9E078FF2801D0E078C8B955
:1039D00000208DF80100E078FF2803D101208DF848
:1039E000000002E000208DF8000001231A4629465D
:1039F000684600F0E1FA06464EB1304600F08FFF0F
:103A0000804604E04FF0030801E04FF00308404611
:103A1000BDE8F8832DE9F04104460F464FF0000859
:103A20003888052812D160780502A0780543681C03
:103A300085B201231A462946E01C00F0C5FA064665
:103A400036B1304600F06BFF804601E04FF00308CE
:103A50004046BDE8F0812DE9F05F05460E464FF087
:103A6000000B3088052839DD68780702A8780743FD
:103A7000781C87B2E87804022879044395F805A0F9
:103A800004F0070040B12046E11704EB5171C91062
:103A9000491C01F0FF0805E02046E11704EB5171D5
:103AA000C1F3C708012C16DBB4F5F66F13DCD04563
:103AB00011D1012322463946A81D00F07DFA814626
:103AC000B9F1000F04D0484600F029FF834607E013
:103AD0000520308004E04FF0030B01E04FF0030BB2
:103AE0005846BDE8F09F2DE9F04704460E464FF0DA
:103AF000000A3088062828DB60780702A078074390
:103B0000781C87B2E07805022079054394F8059087
:103B1000012D17DB782D15DC6806000E484511D104
:103B200001232A463946A01D00F04EFA8046B8F11E
:103B3000000F04D0404600F0F2FE824607E0052068
:103B4000308004E04FF0030A01E04FF0030A5046D2
:103B5000BDE8F0872DE9F04705460C4616461F469E
:103B6000DDF820904FF000081CB1012C01DBF72C90
:103B700002DD4FF0020859E02E48047015B1012D06
:103B800042D120E02C482D4908602D482D4908607D
:103B90002D482E4908602E482E49086000202E49E5
:103BA00008602E482E4908602E482F4908602F488B
:103BB0002F4908604B463A4631461E48007800F0CF
:103BC00007F9804623E02B481C4908602A481D4914
:103BD00008602A481D49086029481E4908600020DD
:103BE0001D49086027481E49086027481E4908608B
:103BF00026481F4908604B463A4631460D48007832
:103C0000FFF71EFC804602E04FF0020800BF00BF35
:103C1000B8F1000F0AD101F077FC10B94FF003089A
:103C200004E01B48057001201A4908704046BDE8B1
:103C3000F087000040000020753F00084800002089
:103C40009D3F00084C000020E13E00084400002099
:103C50002D3E00085000002054000020815500082F
:103C600058000020D95600085C0000205556000876
:103C700060000020C9350008F13500084135000812
:103C80008D340008B9510008A153000835530008CD
:103C9000410000204200002038B50025414800784E
:103CA00008B1062038BD684601F01CFC012877D118
:103CB0009DF8000030B1012805D0022818D0032853
:103CC0006DD16BE06BE0384A38493948394B1B6895
:103CD000984705465DB936480078374909788842E3
:103CE00002D03348007810B9022001F015FC56E0EC
:103CF0002E4800680078314908700120304908706A
:103D0000002417E02F4810F8340000B914E02D48C3
:103D100010F834002949097888420AD1294800EB73
:103D2000C40021494268214800689047244908702E
:103D300002E0641C102CE5DB00BF1D48007858B37E
:103D40001F480078C8B10020174908801B48007838
:103D500040F08001144802880088401C124B1880F3
:103D60001248006881541648027818460188008875
:103D7000401C18800D480068425413480078012800
:103D800000D100BF08480288084801680A48007846
:103D90000E4B1B689847054601E001E000BF00BFDD
:103DA00000207FE742000020F2000020EC0000200D
:103DB000F00000205000002040000020F100002012
:103DC000F40000206C00002041000020440000208E
:103DD0002DE9F04781460E4614461F464FF0000875
:103DE0000120FFF72AFB3B4608222146304601F01E
:103DF000AFFB012802D04FF003080FE0B4F5964F57
:103E000001D9232503E060000749B1FBF0F5A8B212
:103E100001F0B2FB012801D04FF003080020FFF7AA
:103E20000CFB4046BDE8F087A07F17002DE9F0416C
:103E300004460D4616464FF0000800270120FFF704
:103E4000FCFA14480088FF2800DC04E09C2212A140
:103E500018A0FCF725FA0F480088042812DB0D484B
:103E600001881E4800F090FE60B91C480078207060
:103E700008480088C01E30801848401C28604FF059
:103E8000010800E005270020FFF7D7FA3846BDE813
:103E9000F08100001A0100202E2E5C667265656DAF
:103EA0006F646275735C7274755C6D627274752E8A
:103EB00063000000757352637642756666657250E2
:103EC0006F73203C204D425F5345525F5044555F15
:103ED00053495A455F4D4158000000000807002033
:103EE0002DE9F04105460E4617464FF00008012027
:103EF000FFF7A3FA1A480078012829D1701E194942
:103F000008600120184908801648006805700846B6
:103F1000008838440880084601881248006800F08C
:103F200033FE044610490888411C0F4B19800F4985
:103F30000C54221219460888411C19800B490A5456
:103F400001200B4908700121002000F08FFE01E0E4
:103F50004FF005080020FFF770FA4046BDE8F081F9
:103F60001101002014010020180100200807002082
:103F70001001002010B50120FFF75FFA002006496C
:103F800008700021012000F071FE00F0A7FE002063
:103F9000FFF753FA10BD00001101002010B50120F9
:103FA000FFF74BFA0021084600F060FE00F086FEA5
:103FB0000020FFF742FA10BD10B50446012010BDE5
:103FC0000346012070470000F0B504460D4600206E
:103FD0006E1EB5B2002D30DBAE18822E2DDC184ED1
:103FE0003688A91B13B1012B26D111E00DE0154E27
:103FF00036F81160361204F8016B124E16F8116093
:1040000004F8016B491C561EB2B2002AEFDC13E023
:1040100010E014F8017B3E020A4F27F8116014F8F3
:10402000016B37F811703E43064F27F81160491CA9
:10403000561EB2B2002AECDC00E00120F0BD000008
:10404000260100200808002070B5034600204D1E00
:10405000A9B21125114E3580222575803325B580F2
:104060004425F580002917DB8D18042D14DC0C4D38
:104070002D884C1B0DE0094D35F814502D1203F816
:10408000015B064D15F8145003F8015B641C551EC6
:10409000AAB2002AEFDC00E0012070BD1E01002062
:1040A0001C01002000BFEFF3058008B1012070471C
:1040B0000020FCE708B5FDF791FAFEF7D1FEFEF708
:1040C000F5FCFEF707FEFEF783FCFEF757FDFEF753
:1040D00095FDFEF771FDFEF7C7FDFEF717FE6FF0C9
:1040E000010019490968086106E04FF47A730D224E
:1040F00016A11A48FEF7FEFB012219491748FEF7E0
:1041000082FB0028F1D14FF47A730D2215A11348D8
:10411000FEF7F0FB00201749088017490870FCF7EC
:1041200037FAFCF751FA00204FF41653032201210D
:104130000090FFF70FFDFFF769FAFEF76FFC00F044
:1041400030F800BFFEE70000E804002055617274FB
:1041500031204552524F520D0A00000068060020DF
:104160002800002055617274312053756363210D5E
:104170000A0000002A0000202C0000200146002038
:10418000842901D0CA1C1044704770B504462546E6
:104190000DB1294600E00121084600F091FE002003
:1041A00070BD10B500F062FF002010BDF8B50446E8
:1041B0000D46606860B1012D08D1032000900022F7
:1041C00011460120636801F0AAFBF8BD0020FCE75E
:1041D000012D0ED103220021012001F071FB0646C2
:1041E0002EB100231A461946304601F053FC3046E2
:1041F000EBE70020E9E7000038B504460025002081
:104200000090FFF74FFF90B16946204601F016FD80
:10421000012801D0FF2038BD009888B14FF08050B0
:1042200008490860BFF34F8FBFF36F8F08E000238A
:104230001A461946204601F02DFC012800D0FF2522
:104240002846E8E704ED00E0F8B506460C460020F5
:1042500000900EB98020F8BD0025601C08B96D1EC5
:1042600003E014B1254605B90125FFF71BFF98B1FE
:104270006A460021304601F051FD012801D0FF209F
:10428000E9E7009880B14FF0805008490860BFF31B
:104290004F8FBFF36F8F07E02946304601F0A4FD32
:1042A000012801D0FF20D6E70020D4E704ED00E08C
:1042B0007FB504460D46606998B1A06988B1B4F92C
:1042C0000800FFF75BFF0646D4E90510CDE9006161
:1042D00002902B462269D4E9001001F0D9FE039028
:1042E00013E0B4F90800FFF749FF064603A8CDE93B
:1042F0000060238A9AB22B46D4E9001001F096FEA2
:10430000012802D0002004B070BD0398FBE7000034
:104310002DE9F04105460E461C4807681C48006818
:10432000001D00F04DFC50B91948006890F82C10A1
:104330000120884017490968814316480160681CBC
:1043400038B936B112480168091D134800F082FCE3
:104350001AE07C190E4800684460BC4207D20C4841
:104360000168091D0D48006800F05AFC0CE008487F
:104370000168091D0A48006800F052FC09480068FD
:10438000844201D207480460BDE8F081400100206A
:104390002C01002044010020E80900203401002005
:1043A000300100205C01002010B5044600F0A6FC9E
:1043B00023480068401C224908602248006840B930
:1043C000204804600846006801280DD100F0AAF9D1
:1043D0000AE01D48006838B91A480068C06AE16AF6
:1043E000884201D81748046018480068401C1749E3
:1043F000086094F82C10012088401549096808438A
:1044000013490860E16A01EB8101124A02EB810065
:10441000211D00F01FFC00F09BFC0B48006868B1F8
:1044200008480068C06AE16A884207D24FF08050AD
:1044300009490860BFF34F8FBFF36F8F10BD0000B5
:104440003C0100202C0100204801002058010020E0
:10445000440100200C09002004ED00E010B516E036
:1044600000F04CFC0C48C068C468201D00F0A8FB9C
:104470000A480068401E0949086009480068401E53
:104480000749086000F064FC204600F05EF804482C
:1044900000680028E4D110BDD40900203C010020B0
:1044A0003801002070B504460D46206C70B1216CB7
:1044B000E0680844E0606168E068884201D32068F1
:1044C000E0602846226CE168FBF72AFF70BD2DE909
:1044D000F04104460F4615464FF00008A66B206CCD
:1044E00040B9206860BB606801F0E2FE80460020B1
:1044F000606025E07DB93946226CA068FBF710FFAB
:10450000216CA0680844A060D4E90110884217D348
:104510002068A06014E03946226CE068FBF700FFD9
:10452000216CE068401AE0602168E068884203D2AC
:10453000216C6068401AE060022D01D106B1761E40
:10454000701CA0634046BDE8F08110B5044694F8A5
:10455000510030B9206B00F019FC204600F016FC29
:104560001AE094F85100012803D1204600F00EFC17
:1045700012E094F85100022801D1012000E000204F
:1045800050B900BF502080F31188BFF34F8FBFF3A5
:104590006F8F00BF00BFFEE710BD01464A6A22B11F
:1045A0000A6B1268C2F1070000E0002070470000AB
:1045B00030B54FF44063174800F007042CB1C01D1C
:1045C00020F00700134C041B1B1B0246124C2260F8
:1045D0000024114D6C60D018083820F007000F4CF3
:1045E000206000240D4D2D686C600C4D2D682C60F2
:1045F0001146441A4C60094C24680C60084D4C6804
:104600002C60084D4C682C604FF00044064D2C6027
:1046100030BD0000FC09002068010020700100206E
:1046200078010020740100207C01002000BFFFF70A
:1046300015FF064800680128F9D94FF08050044959
:104640000860BFF34F8FBFF36F8FF0E70C090020B6
:1046500004ED00E02DE9F04106460D461746984668
:10466000069C0DB9246000E02760E6632564012103
:10467000204601F0C3F9BDE8F0812DE9FF5F8146D6
:104680000F469246DDE90E6B109CAAF10100216BEA
:1046900001EB800828F0070808F0070008B901209E
:1046A00000E0002050B900BF502080F31188BFF314
:1046B0004F8FBFF36F8F00BF00BFFEE7002507E0FD
:1046C000795D04F134004155785D00B902E06D1C5C
:1046D000102DF5D300BF002143200155072E00D334
:1046E0000626E66266640020A064201D00F095FAAC
:1046F00004F1180000F091FA2461C6F10700A061EE
:1047000064620020E06484F8500049464046039A01
:1047100000F028FA2060BBF1000F01D0CBF8004078
:10472000BDE8FF9F10B5002407E004EB84010F4AA9
:1047300002EB810000F064FA641C072CF5D30C48EE
:1047400000F05EFA0B4800F05BFA0B4800F058FAF4
:104750000A4800F055FA0A4800F052FA044809499C
:10476000086004480849086010BD00000C090020DA
:1047700098090020AC090020C0090020D4090020BD
:10478000E8090020300100203401002010B5014666
:10479000164800E0006803688B42FBD3024643687A
:1047A00013448B4204D143684C6823444360014660
:1047B0000A464B6813440468A34211D10C4C0368A9
:1047C0002468A34208D04B680468646823444B60A3
:1047D00003681B680B6005E0054B1B680B6001E07C
:1047E00003680B60884200D0016010BD68010020A2
:1047F0007001002070B5054600F080FAA86B08B97A
:10480000012400E0002400F0A3FA204670BD70B53A
:10481000054600F073FAA86BE96B884201D10124C8
:1048200000E0002400F094FA204670BD0A490968AF
:10483000096809B9012100E0002121B14FF0FF31E1
:10484000064A116006E004490968C968C868034A55
:104850004168116070470000300100205C010020B9
:104860000E480068401C08B9012000E0002050B943
:1048700000BF502080F31188BFF34F8FBFF36F8FBD
:1048800000BF00BFFEE700BF502080F31188BFF3D8
:104890004F8FBFF36F8F00BF00BFFEE78001002086
:1048A00070B5044600F02AFA94F9455010E0606AA9
:1048B00008B9012000E0002038B904F1240001F01B
:1048C000BFFD18B100F036FB00E003E0681E45B202
:1048D000002DECDC00BFFF2084F8450000F038FA22
:1048E00000F00CFA94F9445010E0206908B9012056
:1048F00000E0002048B904F1100001F0A1FD08B16A
:1049000000F018FB681E45B200E001E0002DECDC71
:1049100000BFFF2084F8440000F01AFA70BD014681
:1049200021B1012904D0072906D103E0002005E0C8
:10493000022003E0062001E0042000BF00BF704712
:1049400010B50446092C03DC04F13000C0B210BDE0
:104950000A2C05DB0F2C03DC04F13700C0B2F6E7AC
:104960004FF4E87201A109A0FBF79AFC2E2E5C66B9
:104970007265656D6F646275735C61736369695CB0
:104980006D6261736369692E63000000300000008E
:104990000146302905DB392903DCA1F13000C0B222
:1049A0007047412905DB462903DCA1F13700C0B27D
:1049B000F6E7FF20F4E710B50246002003E012F806
:1049C000014B2318D8B20B1EA1F10104A1B2F6D1FC
:1049D0004342D8B210BD000010B5024800688047BD
:1049E00010BD00006000002010B50248006880473C
:1049F00010BD00005800002010B502480068804734
:104A000010BD00005C0000202DE9F04104464FF08D
:104A1000000800F083FB4648006808B9FFF7C8FDAE
:104A200044480068204000286BD1D4B1083404F019
:104A30000700B0B104F00700C0F10800044404F01E
:104A4000070008B9012000E0002050B900BF502045
:104A500080F31188BFF34F8FBFF36F8F00BF00BF8C
:104A6000FEE7002C4DD034480068844249D8334ECC
:104A70003046056801E02E462D686868A04202D2E3
:104A800028680028F7D12A480068854239D0306864
:104A900000F10808286830606868001B102819D9E0
:104AA0002F1907F0070008B9012000E0002050B9D5
:104AB00000BF502080F31188BFF34F8FBFF36F8F7B
:104AC00000BF00BFFEE76868001B78606C60384676
:104AD000FFF75CFE184968680968081A16490860FB
:104AE0000846006816490968884203D212480068DF
:104AF000134908600F496868096808436860002026
:104B0000286001F0E9FC08F0070008B9012000E086
:104B1000002050B900BF502080F31188BFF34F8FA1
:104B2000BFF36F8F00BF00BFFEE74046BDE8F081D6
:104B3000700100207C010020740100206801002029
:104B4000780100200648006830B10549096801F184
:104B50004800896C491C01600148006870470000EA
:104B60002C010020001F4FF080730360001F21F014
:104B700001030360001F034B0360143802602038F8
:104B8000704700006148000870B502460C46FF25DA
:104B9000FF2309E012F8010B80EA03010648405C9C
:104BA00080EA05030548455C201EA4F10106B4B265
:104BB000F0D143EA052070BD646600086467000810
:104BC00001460A69D1E901309860D1E901035860D2
:104BD0005068884201D188685060002008611068E0
:104BE000401E106010687047034B0360034B0B605E
:104BF0008023136070470000E80100203C02002081
:104C000000F1080141604FF0FF31816000F10801BF
:104C1000C16001610021016070470021016170479E
:104C200010B502460B685C1C0CB9106907E002F174
:104C3000080000E04068446824689C42FAD944684F
:104C40004C604C68A160886041600A611468641C13
:104C5000146010BD42684A6093688B609368596025
:104C60009160086103685B1C0360704740B1124AA1
:104C70001268D26842F020020F4B1B68DA6007E02E
:104C80000D4A1268D26822F020020B4B1B68DA60D2
:104C900041B1094A1268D26842F08002064B1B6893
:104CA000DA6007E0044A1268D26822F08002024B00
:104CB0001B68DA6070470000A806002010B506489F
:104CC000FDF7F7F90020044909684862801E02498F
:104CD0000968086110BD00002805002010B56FF0BC
:104CE0000100054909680861002003490968486214
:104CF0000148FDF7C9F910BD2805002000BF50206C
:104D000080F31188BFF34F8FBFF36F8F00BF0E4842
:104D10000068401C0C49086008460068012812D150
:104D20000A480068C0B208B9012000E0002050B96C
:104D300000BF502080F31188BFF34F8FBFF36F8FF8
:104D400000BF00BFFEE770478001002004ED00E0D7
:104D50000D48006850B900BF502080F31188BFF3A0
:104D60004F8FBFF36F8F00BF00BFFEE7064800689C
:104D7000401E054908600846006820B9002080F3FD
:104D8000118800BF00BF70478001002070B5064643
:104D90003546002E3FD0083D2C461F496068096803
:104DA000084008B1012000E0002050B900BF5020A9
:104DB00080F31188BFF34F8FBFF36F8F00BF00BF29
:104DC000FEE7206808B9012000E0002050B900BFCC
:104DD000502080F31188BFF34F8FBFF36F8F00BF58
:104DE00000BFFEE70C4960680968084098B1206878
:104DF00088B90949606809688843606000F08EF9E5
:104E00000649606809680844044908602046FFF7BD
:104E1000BDFC01F061FB70BD7C010020740100202D
:104E200000204FF0E02108618861064800684FF4D7
:104E30007A71B0FBF1F0401E4FF0E021486107208D
:104E4000086170473C00002070B5FBF705FA044686
:104E5000102C16D304F1E02090F8F0531548007898
:104E6000854201DB012000E0002050B900BF502046
:104E700080F31188BFF34F8FBFF36F8F00BF00BF68
:104E8000FEE70D48006800F4E0600C4909688842BC
:104E900001D8012000E0002050B900BF502080F36D
:104EA0001188BFF34F8FBFF36F8F00BF00BFFEE7C6
:104EB00070BD0000840100200CED00E0880100209E
:104EC00070B504460025D4B11248006808B9012025
:104ED00000E0002050B900BF502080F31188BFF3DC
:104EE0004F8FBFF36F8F00BF00BFFEE700F016F9D2
:104EF00000212046FFF70CFA01F0EEFA05463DB915
:104F00004FF0805004490860BFF34F8FBFF36F8F9D
:104F100070BD00006401002004ED00E00349096851
:104F20000160034909684160704700005401002096
:104F30004001002001200149086070475001002015
:104F400070B504460D4654B900BF502080F3118857
:104F5000BFF34F8FBFF36F8F00BF00BFFEE7054861
:104F6000016818312046FFF75BFE01212846FFF754
:104F7000CFF970BD2C0100202DE9F04706460F4601
:104F800034464FF00109002E67D0A06C50B900BF25
:104F9000502080F31188BFF34F8FBFF36F8F00BF96
:104FA00000BFFEE7606CB84201D23D4600E0656C90
:104FB000E06AA84251D0A06C01284ED12848006870
:104FC000844201D0012000E0002050B900BF5020F1
:104FD00080F31188BFF34F8FBFF36F8F00BF00BF07
:104FE000FEE7D4F82C80E562A06900F0004010B91B
:104FF000C5F10700A06108EB88011A4A02EB8101A4
:105000006069884201D1012000E0002028B3201D02
:10501000FFF7D6FD78B9E06A00EB8000114951F83E
:10502000200040B994F82C10012088400E490968EE
:1050300081430D48016094F82C10012088400A49F2
:105040000968084308490860E16A01EB8101054AE3
:1050500002EB8100211DFFF7FDFDBDE8F087000098
:105060002C0100200C0900204401002010B586B05E
:1050700000200590049003AA04A905A8FFF7B4FD39
:105080000022DDE904101346CDE9002102901CA1A5
:105090001D48039A00F0FCFF1C49086008460068A0
:1050A00008B1012400E00024012C15D100BF5020DC
:1050B00080F31188BFF34F8FBFF36F8F00BF4FF0A6
:1050C000FF3013490860012012490860002012498E
:1050D000086000F05FFB10E0601C08B1012000E0F8
:1050E000002050B900BF502080F31188BFF34F8FCC
:1050F000BFF36F8F00BF00BFFEE706B010BD00001A
:1051000049444C45000000002D4600086001002085
:105110005C01002048010020400100200248006896
:10512000401C014908607047640100201D48006868
:1051300018B101201C49086032E000201A490860BB
:105140001A480068B0FA80F0C0F11F0101EB81003D
:10515000174A52F8200008B1012000E0002050B9A1
:1051600000BF502080F31188BFF34F8FBFF36F8FC4
:1051700000BF00BFFEE701EB81020D4B03EB820095
:1051800042685268426000F108024368934202D1CB
:105190004268526842604268D268064B1A6000BF9B
:1051A00070470000640100205001002044010020ED
:1051B0000C0900202C01002038B500254848007853
:1051C00000B904E0E32247A14EA0FBF769F8684666
:1051D00000F0AEF95248007800286FD0012802D0C4
:1051E00002287AD146E0FFF779FD9DF800003A28C1
:1051F00005D100204B4908704B49088039E09DF8E3
:1052000000000D2803D102204549087031E09DF8C7
:105210000000FFF7BDFB04464248007810B10128AA
:1052200026D114E040480088FF280ADC2007000E41
:105230003E4909683C4A128888540120394908705F
:1052400016E0002036490870FFF738FD10E03749B6
:105250000968354A1288881801782143017032485C
:105260000088401C3049088000202E49087000BF8B
:1052700000BF32E09DF800002D490978884209D12D
:10528000FFF71CFD002026490870012000F044F9BA
:10529000054611E09DF800003A280AD10020214976
:1052A00008702149088001201D490870FFF716FD8C
:1052B00002E000201A4908700FE0FFE79DF80000A7
:1052C0003A2809D1FFF70AFD00201749088015493F
:1052D000087001201249087000BF00BF284638BD81
:1052E000F80000202E2E5C667265656D6F64627535
:1052F000735C61736369695C6D6261736369692E74
:105300006300000065536E645374617465203D3D15
:105310002053544154455F54585F49444C45000064
:10532000F90000200201002000010020FC00002004
:105330000B01002010B510480078012802D0022887
:1053400005D100E000BF00200B4908700FE00A48BB
:105350000078012803D008480078022800D105E031
:1053600040F2A71205A10D48FAF79AFF00BF00BF4F
:10537000FFF7A4FC002010BDF90000202E2E5C6673
:105380007265656D6F646275735C61736369695C96
:105390006D6261736369692E6300000090680008A4
:1053A00070B500253A48007800B905E040F24F1288
:1053B00038A140A0FAF774FF45480078052864D268
:1053C000DFE800F05E030E474F003A24204600F06D
:1053D000C5F802203E49087000203E49087054E09C
:1053E0003D48008800282DDD3A48007810B101289A
:1053F00027D10DE03949096809780811FFF7A0FAAB
:105400000446204600F0AAF801203249087018E04E
:1054100032490968097801F00F00FFF791FA044654
:10542000204600F09BF82D480068401C2B4908607E
:1054300000202849087028480088401E2649088016
:1054400000BF05E00D2000F089F803202049087016
:105450001BE02348007800F081F804201C49087004
:1054600013E000201A490870032000F055F80546A3
:1054700000210120FFF7FAFB00201549087004E025
:1054800000210120FFF7F2FB00BF00BF284670BDDE
:10549000F90000202E2E5C667265656D6F64627582
:1054A000735C61736369695C6D6261736369692EC2
:1054B00063000000655263765374617465203D3D5E
:1054C0002053544154455F52585F49444C450000B5
:1054D000F800002002010020080100200401002043
:1054E0000B01002001460020054A127832B1054A1E
:1054F00012780A700022024B1A70012070470000D7
:105500002901002028010020002002490870012004
:10551000704700002901002001460120024A107056
:105520000248017001207047290100202801002055
:1055300010B5044601231A4621460448FDF7F4F845
:1055400008B1002010BD0120FCE70000A8060020E3
:1055500010B50446FDF70EFC012010BD01B5012376
:105560001A4669460348FDF7C5F908B1002008BD91
:105570000120FCE7A806002001460120704700003A
:1055800038B500242148007800B904E0E62220A1C3
:1055900026A0FAF785FE6846FFF7CAFF2A4800787A
:1055A00030B101280AD0022819D003282BD102E0FB
:1055B000FFF794FB27E0FFF791FB24E0002023494D
:1055C00008809DF800200888411C204B1980204944
:1055D0000A5402201C490870FFF780FB13E01B48A7
:1055E0000088FF2809DC9DF8002018490888411C24
:1055F000164B198016490A5402E00320124908701C
:10560000FFF76CFB00BF00BF204638BD1001002033
:105610002E2E5C667265656D6F646275735C727464
:10562000755C6D627274752E6300000065536E6464
:105630005374617465203D3D2053544154455F547B
:10564000585F49444C450000110100201A01002018
:105650000807002010B500241648007820B1022861
:1056600007D003280BD109E00020FFF755FF0446BF
:1056700018E00120FFF750FF044613E012E00D4848
:10568000007838B10B480078022803D00948007828
:10569000032800D105E04FF4AD7207A10D48FAF7D9
:1056A000FFFD00BF00BFFFF709FB012001490870A3
:1056B000204610BD110100202E2E5C667265656DBE
:1056C0006F646275735C7274755C6D627274752E52
:1056D00063000000D468000810B500241B4800785F
:1056E000012800D105E040F2211219A11FA0FAF70C
:1056F000D7FD2548007810B1012824D104E000210D
:105700000120FFF7B3FA1EE02048008878B1204955
:1057100009680878FFF722FF1D480068401C1C49F3
:1057200008601A480088401E184908800AE00320D3
:10573000FFF7F2FE044600210120FFF797FA002050
:105740001149087000BF00BF204610BD11010020A4
:105750002E2E5C667265656D6F646275735C727423
:10576000755C6D627274752E63000000655263761D
:105770005374617465203D3D2053544154455F523C
:10578000585F49444C4500001001002018010020DA
:10579000140100201CB53849084600780190FF200C
:1057A0000A4610700846007800909DF8000000F04E
:1057B000F0009DF80020904201D1012000E000207F
:1057C00050B900BF502080F31188BFF34F8FBFF353
:1057D0006F8F00BF00BFFEE79DF8000000F0500093
:1057E000264A10700720264A106009E02448006805
:1057F000401E234A10609DF800004006000E0090F5
:105800009DF8000000F080008028EFD01C48006860
:10581000C0F10700042801D1012000E0002050B9A8
:1058200000BF502080F31188BFF34F8FBFF36F8FFD
:1058300000BF00BFFEE7124800680002104A106077
:105840001046008800F4E06010600B4A0198107068
:105850000C48006840F470000A4908600846006877
:1058600040F070400860FFF7DBFA0020064908604E
:10587000FAF7BCFC00201CBD00E400E0840100201D
:105880008801002020ED00E08001002010B500BF5D
:10589000502080F31188BFF34F8FBFF36F8F00BF8D
:1058A00000F062FC18B14FF080500449086000BF5E
:1058B000002080F3118800BF10BD000004ED00E05F
:1058C0002DE9F84305460E4690460DB1012000E053
:1058D000002050B900BF502080F31188BFF34F8FD4
:1058E000BFF36F8F00BF00BFFEE70EB9002701E0D6
:1058F00005FB06F707F14800FFF786F804465CB1A0
:1059000004F14809002084F8460043464A463146DF
:1059100028460094FEF79EFE2046BDE8F8832DE958
:10592000F84380460E4617461D46DDF82090B8F134
:10593000000F01D0012000E0002050B900BF50202E
:1059400080F31188BFF34F8FBFF36F8F00BF00BF8D
:10595000FEE70DB1012000E0002050B900BF50204B
:1059600080F31188BFF34F8FBFF36F8F00BF00BF6D
:10597000FEE707B10EB1012000E0002050B900BFE2
:10598000502080F31188BFF34F8FBFF36F8F00BF9C
:1059900000BFFEE707B90EB9012000E0002050B9B2
:1059A00000BF502080F31188BFF34F8FBFF36F8F7C
:1059B00000BF00BFFEE7482000900098482801D1B2
:1059C000012000E0002050B900BF502080F3118872
:1059D000BFF34F8FBFF36F8F00BF00BFFEE72C46B2
:1059E0004CB1012084F846004B463A4631464046C9
:1059F0000094FEF72FFE2046BDE8F88370B50546FB
:105A00000E462C4654B900BF502080F31188BFF3D6
:105A10004F8FBFF36F8F00BF00BFFEE7FFF76EF938
:105A2000D4E90F12206801FB020060600020A0632F
:105A30002068A060E06B401E226C216800FB021011
:105A4000E060FF2084F8440084F845009EB9206996
:105A500008B9012000E00020A8B904F1100000F00E
:105A6000EFFC80B14FF0805009490860BFF34F8FC1
:105A7000BFF36F8F07E004F11000FFF7C1F804F1E6
:105A80002400FFF7BDF8FFF763F9012070BD0000A7
:105A900004ED00E02DE9FF4383B0064688461D462D
:105AA0004FF00009344654B900BF502080F31188EC
:105AB000BFF34F8FBFF36F8F00BF00BFFEE7B8F19A
:105AC000000F01D1206C08B9012000E0002050B97E
:105AD00000BF502080F31188BFF34F8FBFF36F8F4B
